:020000040000FA
:1000000060020010DD010000F1010000F3010000BA
:10001000F5010000F7010000F901000000000000F8
:10002000000000000000000000000000FB010000D4
:10003000FD01000000000000FF01000001020000BF
:10004000030200000302000003020000030200009C
:10005000030200000302000003020000030200008C
:10006000030200000302000003020000030200007C
:10007000030200000302000003020000030200006C
:10008000030200000302000003020000030200005C
:10009000030200000302000003020000030200004C
:1000A000030200000302000003020000030200003C
:1000B000030200000302000003020000030200002C
:1000C00003020000030200000302000000F002F837
:1000D00000F02CF80AA090E8000C82448344AAF1B6
:1000E0000107DA4501D100F021F8AFF2090EBAE8B4
:1000F0000F0013F0010F18BFFB1A43F0010318475C
:1001000048010000580100000023002400250026BB
:10011000103A28BF78C1FBD8520728BF30C148BF6A
:100120000B6070471FB51FBD10B510BD00F02AF859
:100130001146FFF7F7FF00F009F800F048F803B4A4
:10014000FFF7F2FF03BC00F077F8000000200B4936
:1001500048604FF040700A4908600DE00848406D63
:1001600010F4006F04D14FF040700549886103E03E
:100170004FF040700249C861F0E7000000C0024043
:1001800000C00920754600F04FF8AE4605006946EC
:10019000534620F00700854618B020B500F032F82D
:1001A000BDE820404FF000064FF000074FF0000878
:1001B0004FF0000B21F00701AC46ACE8C009ACE8F9
:1001C000C009ACE8C009ACE8C0098D4670470446D8
:1001D000AFF300802046FFF7B2FF00000C484FF05D
:1001E000553101600B484FF0553101600A48004716
:1001F000FEE7FEE7FEE7FEE7FEE7FEE7FEE7FEE7D7
:10020000FEE7FEE705480649044A064B7047000032
:10021000A8C10F40ACC10F40CD000000600000102D
:1002200060020010600000100048704700000010DD
:10023000704770477047000001491820ABBEFEE7C9
:1002400026000200704700000003000000000010BC
:100250006002000008010000000000000000000033
:10026000000000000000000000000000000000008E
:10027000000000000000000000000000000000007E
:10028000000000000000000000000000000000006E
:10029000000000000000000000000000000000005E
:1002A000000000000000000000000000000000004E
:1002B000000000000000000000000000000000003E
:1002C000000000000000000000000000000000002E
:1002D000000000000000000000000000000000001E
:1002E000000000000000000000000000000000000E
:1002F000000000000000000000000000FFFFFFFF02
:04000005000000CD2A
:00000001FF
