:020000040000FA
:1000000068020010A1020000B5020000B702000063
:10001000B9020000BB020000BD02000000000000A9
:10002000000000000000000000000000BF0200000F
:10003000C102000000000000C3020000C502000071
:10004000C7020000C7020000C7020000C70200008C
:10005000C7020000C7020000C7020000C70200007C
:10006000C7020000CF010000C7020000C702000065
:10007000C7020000C7020000C7020000C70200005C
:10008000C7020000C7020000C7020000C70200004C
:10009000C7020000C7020000C7020000C70200003C
:1000A000C7020000C7020000C7020000C70200002C
:1000B000C7020000C7020000C7020000C70200001C
:1000C000C7020000C7020000C702000000F002F8EB
:1000D00000F03AF80AA090E8000C82448344AAF1A8
:1000E0000107DA4501D100F02FF8AFF2090EBAE8A6
:1000F0000F0013F0010F18BFFB1A43F0010318475C
:100100000C0200002C020000103A24BF78C878C10D
:10011000FAD8520724BF30C830C144BF04680C600D
:10012000704700000023002400250026103A28BF55
:1001300078C1FBD8520728BF30C148BF0B60704759
:100140001FB51FBD10B510BD00F07EF81146FFF7BA
:10015000F7FF00F038F800F09CF803B4FFF7F2FF67
:1001600003BC00F0CDF800004020324908604FF495
:1001700040203149C8614FF000003049C8604FF459
:100180008060C8644FF00300486147F230508861D6
:100190004FF4807008624FF0FF0008654FF00200D6
:1001A00048604FF00900486000BF4FF0010101FABC
:1001B00000F14FEA50124FF0E02303EB8202C2F845
:1001C000001100BF7047FFF7CFFF00BFFEE7FF2021
:1001D0001A4908601A48007898B90846006A6430DD
:1001E0000862FF2008650846006A46F678118842D2
:1001F0001FD3FF2013490870114908700F49086583
:1002000017E010480078FF2813D10C48006A6438C2
:100210000A490862FF2008650846006AB0F5407F79
:1002200007D800200649087006490870FF200349D6
:1002300008657047C4C00F4000C002400080014004
:100240000400001005000010754600F04FF8AE469F
:1002500005006946534620F00700854618B020B5D2
:1002600000F032F8BDE820404FF000064FF00007E4
:100270004FF000084FF0000B21F00701AC46ACE84E
:10028000C009ACE8C009ACE8C009ACE8C0098D46BB
:1002900070470446AFF300802046FFF75EFF000082
:1002A0000C484FF0553101600B484FF0553101605B
:1002B0000A480047FEE7FEE7FEE7FEE7FEE7FEE747
:1002C000FEE7FEE7FEE7FEE705480649044A064B5F
:1002D00070470000A8C10F40ACC10F40CD00000026
:1002E00068000010680200106800001000487047A5
:1002F000080000107047704770477047FFFFFFFF0E
:1003000001491820ABBEFEE7260002002C030000C6
:100310000000001008000000080100003403000085
:10032000080000106002000024010000000000002E
:0403300000000000C9
:04000005000000CD2A
:00000001FF
