:020000040000FA
:10000000780200104D03000061030000630300004C
:1000100065030000670300006903000000000000A2
:100020000000000000000000000000006B03000062
:100030006D030000000000006F030000710300006A
:1000400073030000730300007303000073030000D8
:1000500073030000730300007303000073030000C8
:1000600073030000730300007303000073030000B8
:1000700073030000730300007303000073030000A8
:100080007303000073030000730300007303000098
:100090007303000073030000730300007303000088
:1000A0007303000073030000730300007303000078
:1000B0007303000073030000730300007303000068
:1000C00073030000730300007303000000F002F8E4
:1000D00000F03AF80AA090E8000C82448344AAF1A8
:1000E0000107DA4501D100F02FF8AFF2090EBAE8A6
:1000F0000F0013F0010F18BFFB1A43F0010318475C
:1001000098020000B8020000103A24BF78C878C1F5
:10011000FAD8520724BF30C830C144BF04680C600D
:10012000704700000023002400250026103A28BF55
:1001300078C1FBD8520728BF30C148BF0B60704759
:100140001FB51FBD10B510BD00F0DAF81146FFF75E
:10015000F7FF00F05FF800F0ADF803B4FFF7F2FF2F
:1001600003BC00F0B5F8000008204C4908600020EE
:100170004B4908601EE00F204A49C865474800689F
:1001800088654648006840084449086000204649A0
:10019000086004E044480068401C43490860424845
:1001A000006843F698218842F4D33D480068401C1B
:1001B0003B4908603A4800680328DCD970470120B1
:1001C000364908600020364908601EE00F20354996
:1001D000C8653248006888653048006840002F498B
:1001E000086000203049086004E02F480068401C87
:1001F0002D4908602C48006843F698218842F4D3C2
:1002000027480068401C26490860254800680328E4
:10021000DCD970470020254908610F202149086476
:100220003BE000202249086006E0FFF7C8FF2048B5
:100230000068401C1E4908601D4800681E28F4D351
:1002400000201949086004E017480068401C16495E
:100250000860154800684CF250318842F4D3002001
:100260001349086006E0FFF77FFF11480068401C53
:100270000F4908600E4800681E28F4D300200A4980
:10028000086004E008480068401C07490860064808
:1002900000684CF250318842F4D3C2E70C000010E1
:1002A0000000001000C009200800001000C002403B
:1002B000040000100446AFF300802046FFF74DFF16
:1002C00000487047140000107047704770470000E6
:1002D00001491820ABBEFEE726000200704700006F
:1002E000000000000000000000000000000000000E
:1002F000000000000000000000000000FFFFFFFF02
:100300007546FFF7DDFFAE4605006946534620F00F
:100310000700854618B020B500F02CF8BDE8204055
:100320004FF000064FF000074FF000084FF0000BB1
:1003300021F00701AC46ACE8C009ACE8C009ACE864
:10034000C009ACE8C0098D46704700000C484FF06A
:10035000553101600B484FF0553101600A480047A4
:10036000FEE7FEE7FEE7FEE7FEE7FEE7FEE7FEE765
:10037000FEE7FEE705480649044A064B70470000C1
:10038000A8C10F40ACC10F40CD00000078000010A4
:100390007802001078000010B80300000000001080
:1003A0001400000008010000CC030000140000103D
:1003B00064020000240100000000000000000000B2
:0C03C00000000000000000000000000031
:04000005000000CD2A
:00000001FF
