:020000040000FA
:1000000060020010ED010000010200000302000088
:1000100005020000070200000902000000000000C5
:100020000000000000000000000000000B020000C3
:100030000D020000000000000F020000110200008D
:10004000130200001302000013020000130200005C
:10005000130200001302000013020000130200004C
:10006000130200001302000013020000130200003C
:10007000130200001302000013020000130200002C
:10008000130200001302000013020000130200001C
:10009000130200001302000013020000130200000C
:1000A00013020000130200001302000013020000FC
:1000B00013020000130200001302000013020000EC
:1000C00013020000130200001302000000F002F807
:1000D00000F02CF80AA090E8000C82448344AAF1B6
:1000E0000107DA4501D100F021F8AFF2090EBAE8B4
:1000F0000F0013F0010F18BFFB1A43F0010318475C
:10010000580100006801000000230024002500269B
:10011000103A28BF78C1FBD8520728BF30C148BF6A
:100120000B6070471FB51FBD10B510BD00F032F851
:100130001146FFF7F7FF00F009F800F050F803B49C
:10014000FFF7F2FF03BC00F07FF800000021002061
:1001500000220E4B1A604FF47F620D4B1A60D2439F
:100160001A6111E0002004E001460901084A5161CA
:10017000401CFF28F8D100BF04E001460901044AF1
:100180005161401E0028F8D1ECE7000000C0024099
:1001900000C00920754600F04FF8AE4605006946DC
:1001A000534620F00700854618B020B500F032F81D
:1001B000BDE820404FF000064FF000074FF0000868
:1001C0004FF0000B21F00701AC46ACE8C009ACE8E9
:1001D000C009ACE8C009ACE8C0098D4670470446C8
:1001E000AFF300802046FFF7AAFF00000C484FF055
:1001F000553101600B484FF0553101600A48004706
:10020000FEE7FEE7FEE7FEE7FEE7FEE7FEE7FEE7C6
:10021000FEE7FEE705480649044A064B7047000022
:10022000A8C10F40ACC10F40CD000000600000101D
:1002300060020010600000100048704700000010CD
:10024000704770477047000001491820ABBEFEE7B9
:1002500026000200704700000003000000000010AC
:100260006002000008010000000000000000000023
:10027000000000000000000000000000000000007E
:10028000000000000000000000000000000000006E
:10029000000000000000000000000000000000005E
:1002A000000000000000000000000000000000004E
:1002B000000000000000000000000000000000003E
:1002C000000000000000000000000000000000002E
:1002D000000000000000000000000000000000001E
:1002E000000000000000000000000000000000000E
:1002F000000000000000000000000000FFFFFFFF02
:04000005000000CD2A
:00000001FF
