:020000040000FA
:1000000068020010590200006D0200006F0200003B
:100010007102000073020000750200000000000081
:100020000000000000000000000000007702000057
:1000300079020000000000007B0200007D02000049
:100040007F0200007F0200007F0200007F020000AC
:100050007F0200007F0200007F0200007F0200009C
:100060007F0200007F0200007F0200007F0200008C
:100070007F0200007F0200007F0200007F0200007C
:100080007F0200007F0200007F0200007F0200006C
:100090007F020000BD0100007F0200007F0200001F
:1000A0007F0200007F0200007F0200007F0200004C
:1000B0007F0200007F0200007F0200007F0200003C
:1000C0007F0200007F0200007F02000000F002F8C3
:1000D00000F03AF80AA090E8000C82448344AAF1A8
:1000E0000107DA4501D100F02FF8AFF2090EBAE8A6
:1000F0000F0013F0010F18BFFB1A43F0010318475C
:10010000C4010000E4010000103A24BF78C878C19F
:10011000FAD8520724BF30C830C144BF04680C600D
:10012000704700000023002400250026103A28BF55
:1001300078C1FBD8520728BF30C148BF0B60704759
:100140001FB51FBD10B510BD00F05AF81146FFF7DE
:10015000F7FF00F009F800F078F803B4FFF7F2FFBA
:1001600003BC00F0A7F800001F48006940F0806061
:100170001D4908610846006920F040700861881434
:100180001A49086488650820194908601949C1F8A6
:1001900048014FF00000184908604FF015004FF07B
:1001A000010101FA00F14FEA50124FF0E02303EB96
:1001B0008202C2F8001100BF00BFFEE708200C4910
:1001C00008600E48007838B94FF480500749C86578
:1001D000FF200A49087006E04FF480500349886503
:1001E000002006490870704700C0024000C0092086
:1001F00040C10F4000C00F404CC10F400000001034
:10020000754600F04FF8AE4605006946534620F0AB
:100210000700854618B020B500F032F8BDE8204050
:100220004FF000064FF000074FF000084FF0000BB2
:1002300021F00701AC46ACE8C009ACE8C009ACE865
:10024000C009ACE8C0098D4670470446AFF3008092
:100250002046FFF782FF00000C484FF05531016047
:100260000B484FF0553101600A480047FEE7FEE7B2
:10027000FEE7FEE7FEE7FEE7FEE7FEE7FEE7FEE756
:1002800005480649044A064B70470000A8C10F40C4
:10029000ACC10F40CD0000006800001068020010E3
:1002A0006800001000487047040000107047704755
:1002B0007047000001491820ABBEFEE7260002008F
:1002C0007047000000030000000000100400000060
:1002D0000801000004030000040000106402000094
:1002E00024010000000000000000000000000000E9
:1002F000000000000000000000000000FFFFFFFF02
:0403000000000000F9
:04000005000000CD2A
:00000001FF
