:020000040000FA
:10000000C0020010BD010000D1010000D3010000BA
:10001000D5010000D7010000D90100000000000058
:10002000000000000000000000000000DB010000F4
:10003000DD01000000000000DF010000E101000020
:10004000E3010000E3010000E3010000E301000020
:10005000E3010000E3010000E3010000E301000010
:10006000E3010000E3010000E3010000E301000000
:10007000E3010000E3010000E3010000E3010000F0
:10008000E3010000E3010000E3010000E3010000E0
:10009000E3010000E3010000E3010000E3010000D0
:1000A000E3010000E3010000E3010000E3010000C0
:1000B000E3010000E3010000E3010000E3010000B0
:1000C000E3010000E3010000E301000000F002F89A
:1000D00000F03AF80AA090E8000C82448344AAF1A8
:1000E0000107DA4501D100F02FF8AFF2090EBAE8A6
:1000F0000F0013F0010F18BFFB1A43F0010318475C
:100100002801000048010000103A24BF78C878C1D7
:10011000FAD8520724BF30C830C144BF04680C600D
:10012000704700000023002400250026103A28BF55
:1001300078C1FBD8520728BF30C148BF0B60704759
:100140001FB51FBD10B510BD00F00DF81146FFF72B
:10015000F7FF00F000F900F02BF803B4FFF7F2FF0F
:1001600003BC00F059F8754600F04EF8AE460500A5
:100170006946534620F00700854618B020B500F0C8
:1001800031F8BDE820404FF000064FF000074FF077
:1001900000084FF0000B21F00701AC46ACE8C009A5
:1001A000ACE8C009ACE8C009ACE8C0098D467047AE
:1001B0000446AFF300802046FFF7CFFF0C484FF016
:1001C000553101600B484FF0553101600A48004736
:1001D000FEE7FEE7FEE7FEE7FEE7FEE7FEE7FEE7F7
:1001E000FEE7FEE705480649044A064B7047000053
:1001F000A8C10F40ACC10F40CD000000C0000010EE
:10020000C0020010C0000010004870475C000010E1
:10021000704770477047000001491820ABBEFEE7E9
:1002200026000200704700001C07000000000010BC
:100230005C00000008010000780700005C0000106E
:100240006402000024010000000000000000000023
:10025000000000000000000000000000000000009E
:10026000000000000000000000000000000000008E
:10027000000000000000000000000000000000007E
:10028000000000000000000000000000000000006E
:10029000000000000000000000000000000000005E
:1002A000000000000000000000000000000000004E
:1002B000000000000000000000000000000000003E
:1002C000000000000000000000000000000000002E
:1002D000000000000000000000000000000000001E
:1002E000000000000000000000000000000000000E
:1002F000000000000000000000000000FFFFFFFF02
:100300006649486900F4F020B0F5F02F22D00021B2
:10031000634A116004E062490968491C604A11603F
:100320005F490968B1F5FA7FF5D35C49486900F483
:10033000F020B0F5F02F0DD001215A4A1170C00BFA
:1003400059490968090C584A116011460978014356
:10035000564A1170704700205549C86008604860CF
:100360004E48006820F4F0204C4908600846006AB6
:1003700040F4700008624FF47000886300F0F1F8F8
:1003800080204C49086000F0CCF84FF4487000F031
:100390009FF8494800F0A0F9C0204649086000F0E5
:1003A000C0F84FF4487000F093F8444800F094F916
:1003B00073E047E001204249087039E04048007886
:1003C000012803D100053F49086017E03C48007848
:1003D000022803D100053B4908600FE03848007847
:1003E000032804D14FF480003649086006E0344801
:1003F0000078042802D1400532490860314800687D
:10040000294908604FF47000244988632D4800682A
:10041000C863002023490870FFF772FF2148007865
:10042000012800D108E026480078401C24490870C3
:10043000234800780528C1DB00BF1A48007801284E
:1004400000D100E0B6E700BF00201549086013E0C6
:100450001D4813490968405C14490978884206D14F
:100460001A480F490968405C1049087008E00C48B8
:100470000068401C0A490860094800681028E7D352
:1004800000BFCC200B49086000F04BF84FF44870D7
:1004900000F01EF8054800F01FF98AE700C00920A7
:1004A000440000103E0000104C0000103F000010FF
:1004B00000C0024054000010000000100E000010A8
:1004C0003C000010480000101B0000102B00001022
:1004D0004FF0000101E001F101018142FBD37047BF
:1004E0004FF470708849C8654FF01000C8654FF030
:1004F0002000C865704700B5FFF7F2FF8348006829
:10050000814948654FF01000C8654FF020008865AC
:100510004FF01900FFF7DCFF4FF020007A49C86563
:1005200000BD00B57A48006800F0F0007749086027
:10053000084600684FEA80000860FFF7DCFF744857
:10054000006800F00F0071490860084600684FEA33
:1005500080100860FFF7CFFF4FF47A70FFF7B8FF05
:1005600000BD00B56B4800696B4900EA01006949AC
:1005700008616548006C40F470706349086408467F
:10058000006C40F0100008640846006C40F0200049
:100590000864FFF7A5FF4FF44860FFF799FF4FF09D
:1005A000C0005A490860FFF7A6FF47F23050FFF736
:1005B0008FFF4FF0C00055490860FFF79CFF47F2DE
:1005C0003050FFF785FF4FF0C00050490860FFF73B
:1005D00092FF47F23050FFF77BFF4FF080004B490E
:1005E0000860FFF788FF47F23050FFF771FF4FF0C8
:1005F000280047490860FFF794FF47F23050FFF7A3
:1006000067FF4FF00C0042490860FFF78AFF4FF484
:100610004870FFF75DFF4FF006003D490860FFF7A7
:1006200080FF4FF44870FFF753FF4FF00100384947
:100630000860FFF776FF42F21070FFF749FF4FF0B6
:10064000800033490860FFF76CFF4FF44870FFF7F4
:100650003FFF00BD00B5FFF743FF2C4800682A4963
:1006600048654FF0100088654FF0200088654FF016
:100670001900FFF72DFF4FF020002349C86500BD8A
:1006800000B52348006800F0F000204908600846E3
:1006900000684FEA80000860FFF7DCFF1C48006834
:1006A00000F00F0019490860084600684FEA801002
:1006B0000860FFF7CFFF4FF47A70FFF709FF00BD26
:1006C00000B54FF0010012490860FFF72AFF42F21F
:1006D0001070FFF7FDFE00BD10B504464FF000039B
:1006E0000EE0E05C0A490860FFF7CAFF03F101036E
:1006F000102B05D14FF0C00005490860FFF711FF2E
:10070000E05C0028EDD110BD00C0092058000010A9
:100710005400001000C00240FF00F0FF414C532085
:1007200042454E47414C555255004B455920505279
:1007300045535345443D001E1D1B172E2D2B274EA0
:100740004D4B478E8D8B87303132333435363738C9
:1007500039414243444546000000000000000000CB
:100760000000000000000000000000000000000089
:08077000000000000000000081
:04000005000000CD2A
:00000001FF
