:020000040000FA
:10000000B002001065020000790200007B020000CF
:100010007D0200007F02000081020000000000005D
:10002000000000000000000000000000830200004B
:100030008502000000000000870200008902000025
:100040008B0200008B0200008B0200008B0200007C
:100050008B0200008B0200008B0200008B0200006C
:100060008B0200008B0200008B0200008B0200005C
:100070008B0200008B0200008B0200008B0200004C
:100080008B0200008B0200008B0200008B0200003C
:100090008B0200008B0200008B0200008B0200002C
:1000A0008B0200008B0200008B0200008B0200001C
:1000B0008B0200008B0200008B0200008B0200000C
:1000C0008B0200008B0200008B02000000F002F89F
:1000D00000F03AF80AA090E8000C82448344AAF1A8
:1000E0000107DA4501D100F02FF8AFF2090EBAE8A6
:1000F0000F0013F0010F18BFFB1A43F0010318475C
:10010000D0010000F0010000103A24BF78C878C187
:10011000FAD8520724BF30C830C144BF04680C600D
:10012000704700000023002400250026103A28BF55
:1001300078C1FBD8520728BF30C148BF0B60704759
:100140001FB51FBD10B510BD00F060F81146FFF7D8
:10015000F7FF00F009F800F07EF803B4FFF7F2FFB4
:1001600003BC00F0ADF800000020214908604860A1
:1001700020482149086039E01F48806940F4C010D8
:100180001D4988614FF47F60C8611C481C4909689B
:1001900050F821001849886100201A49086013E0CE
:1001A00000201949086004E017480068401C1649FF
:1001B00008601548006847F230518842F4D311486E
:1001C0000068401C0F4908600E4800680328E7D308
:1001D0000B480068401C0A4908600846006810285F
:1001E00004D10020086003480349C861C4E7000047
:1001F00000C00240F00F180000C0092008000010E5
:10020000040000104C00001048000010754600F07B
:100210004FF8AE4605006946534620F00700854674
:1002200018B020B500F032F8BDE820404FF00006CD
:100230004FF000074FF000084FF0000B21F00701CE
:10024000AC46ACE8C009ACE8C009ACE8C009ACE811
:10025000C0098D4670470446AFF300802046FFF783
:100260007CFF00000C484FF0553101600B484FF007
:10027000553101600A480047FEE7FEE7FEE7FEE76A
:10028000FEE7FEE7FEE7FEE7FEE7FEE70548064974
:10029000044A064B70470000A8C10F40ACC10F4094
:1002A000CD000000B0000010B0020010B00000103F
:1002B00000487047500000107047704770470000BA
:1002C00001491820ABBEFEE726000200704700007F
:1002D00000030000000000105000000008010000B2
:1002E00050030000500000106002000024010000D4
:1002F000000000000000000000000000FFFFFFFF02
:100300000000000000000000F0030000600000009A
:10031000B0050000F004000060060000D0060000F8
:10032000D007000070000000F0070000F006000099
:1003300070070000C007000090030000E005000007
:1003400090070000100700000000000000000000FF
:04000005000000CD2A
:00000001FF
