:020000040000FA
:10000000A002001035020000490200004B0200006F
:100010004D0200004F0200005102000000000000ED
:10002000000000000000000000000000530200007B
:1000300055020000000000005702000059020000B5
:100040005B0200005B0200005B0200005B0200003C
:100050005B0200005B0200005B0200005B0200002C
:100060005B0200005B0200005B0200005B0200001C
:100070005B0200005B0200005B0200005B0200000C
:100080005B0200005B0200005B0200005B020000FC
:100090005B0200005B0200005B0200005B020000EC
:1000A0005B0200005B0200005B0200005B020000DC
:1000B0005B0200005B0200005B0200005B020000CC
:1000C0005B0200005B0200005B02000000F002F82F
:1000D00000F03AF80AA090E8000C82448344AAF1A8
:1000E0000107DA4501D100F02FF8AFF2090EBAE8A6
:1000F0000F0013F0010F18BFFB1A43F0010318475C
:10010000A0010000C0010000103A24BF78C878C1E7
:10011000FAD8520724BF30C830C144BF04680C600D
:10012000704700000023002400250026103A28BF55
:1001300078C1FBD8520728BF30C148BF0B60704759
:100140001FB51FBD10B510BD00F048F81146FFF7F0
:10015000F7FF00F009F800F066F803B4FFF7F2FFCC
:1001600003BC00F095F800000020164908604FF429
:100170007F6015490860C04308610020134908608A
:100180001EE000201149086016E011480F49096877
:10019000405C10490860084600684FF47F6101EA3E
:1001A00000100D4908600846006807494861074883
:1001B0000068401C05490860044800683028E4DBFA
:1001C000DFE7000000C0024000C00920000000106E
:1001D00004000010380000103C000010754600F0CC
:1001E0004FF8AE4605006946534620F007008546A5
:1001F00018B020B500F032F8BDE820404FF00006FE
:100200004FF000074FF000084FF0000B21F00701FE
:10021000AC46ACE8C009ACE8C009ACE8C009ACE841
:10022000C0098D4670470446AFF300802046FFF7B3
:1002300094FF00000C484FF0553101600B484FF01F
:10024000553101600A480047FEE7FEE7FEE7FEE79A
:10025000FEE7FEE7FEE7FEE7FEE7FEE705480649A4
:10026000044A064B70470000A8C10F40ACC10F40C4
:10027000CD000000A0000010A0020010A00000109F
:1002800000487047400000107047704770470000FA
:1002900001491820ABBEFEE72600020070470000AF
:1002A00000030000000000104000000008010000F2
:1002B0004003000040000010600200002401000024
:1002C000000000000000000000000000000000002E
:1002D000000000000000000000000000000000001E
:1002E000000000000000000000000000000000000E
:1002F000000000000000000000000000FFFFFFFF02
:10030000000000008090A1B1C0CDDAE5EEF6FBFE62
:10031000FFFEFBF6EEE5DACDC0B1A19080705F4F35
:100320004033261B120A05020002050A121B26335F
:10033000404F5F70800000000000000000000000DF
:04000005000000CD2A
:00000001FF
